:020000041000EA
:1000000000B5324B212058609868022188439860DF
:10001000D860186158612E4B002199600221596106
:100020000121F02299502B49196001219960352056
:1000300000F044F80222904214D00621196600F024
:1000400034F8196E01211966002018661A6600F04E
:100050002CF8196E196E196E052000F02FF8012189
:100060000842F9D1002199601B49196000215960AB
:100070001A491B48016001219960EB211966A021F2
:10008000196600F012F800219960164914480160C1
:100090000121996001BC002800D000471248134993
:1000A000086003C880F30888084703B5996A0420EC
:1000B0000142FBD001200142F8D103BD02B5186610
:1000C0001866FFF7F2FF186E186E02BD00000240BE
:1000D000000000180000070000035F00212200005C
:1000E000F4000018222000A00001001008ED00E03C
:1000F00000000000000000000000000074B24E7A12
:1001000000200420F7010010CB010010CD010010E9
:10011000C9010010C9010010C9010010C901001077
:10012000C9010010C9010010C9010010CF01001061
:10013000C9010010C9010010D1010010D301001045
:10014000C1010010C1010010C1010010C101001067
:10015000C1010010C1010010C1010010C101001057
:10016000C1010010C1010010C1010010C101001047
:10017000C1010010C1010010C1010010C101001037
:10018000C1010010C1010010C1010010C101001027
:10019000C1010010C1010010C1010010C101001017
:1001A000C1010010C1010010C1010010C101001007
:1001B000C1010010C1010010C1010010C1010010F7
:1001C000EFF30580103800BE00BE00BE00BE00BECA
:1001D00000BE00BEF2EB8871B8710110D47101103D
:1001E0003802001090A31AE71E481F49086006C88D
:1001F00081F3088810471D480068002801D019487D
:10020000F3E70DA40ECC002902D000F012F8F9E7B4
:100210001749184A002000E001C19142FCD116495B
:100220008847164988471649884700BEFDE701C937
:1002300001C29A42FBD37047D4710110C000002064
:100240007421002088920110000004200000042086
:10025000889201100010042000100420000000000B
:10026000704700000000000008ED00E0000000D032
:100270007421002060730020B13C0010350500108F
:100280006D3C0010F8B5C0460448054B10B58342DC
:1002900003D0044B002B00D0984710BD74210020E0
:1002A000742100200000000006480749091A8B103D
:1002B000C90FC91810B5491003D0044B002B00D04A
:1002C000984710BD74210020742100200000000018
:1002D00010B5074C2378002B09D1FFF7D5FF054B4C
:1002E000002B02D0044800E000BF0123237010BDA2
:1002F00098690020000000005C530110054B10B508
:10030000002B03D00449054800E000BFFFF7CCFFF5
:1003100010BDC046000000009C6900205C53011025
:1003200010B584B0114C1249200003F0EBFF0321FB
:10033000042000F03FFA0321052000F03BFA0022E0
:100340000121042000F050FA00220121052000F0D4
:100350004BFA03AA6B231380002300930233682116
:10036000200004F005F804B010BDC0468002002053
:10037000801A0600F0B5CE46474680B587B0060025
:100380000D003B236A46D373244F3A3B99460093B2
:100390000F226A446821380003F0EAFF04AC00230E
:1003A00098460093063322006821380003F0ECFFE2
:1003B00022781202637813433380A2781202E37822
:1003C000134373802279120263791343B38043236A
:1003D0006A46D3734B4600930F226A446821380063
:1003E00003F0C6FF4346009306332200682138001D
:1003F00003F0CAFF22781202637813432B80A2789D
:100400001202E37813436B8022791202637913435B
:10041000AB8007B0C0BCB946B046F0BD800200203A
:1004200070B584B000286FD005F0CAFA06000D0040
:10043000394A002301F008FB384C2060364A00237B
:100440003000290001F000FB626002AD694628001F
:10045000FFF790FF0023E85E01F0AAFD304A314B20
:1004600001F037FD2300E033186059600223E85E95
:1004700001F09EFD2A4A2B4B01F02BFD2300E833AF
:10048000186059600423E85E01F092FD244A254B70
:1004900001F01FFD2300F033186059606B46002007
:1004A000185E01F085FD204A204B01F012FD23006B
:1004B0008033186059606B460220185E01F078FDA9
:1004C000194A1A4B01F005FD230088331860596062
:1004D0006B460420185E01F06BFD134A134B01F0CC
:1004E000F8FC230090331860596000222100104866
:1004F00004F034F8D0231B065B689B0106D4D0239C
:100500001B06802292045A6104B070BDD0231B06E2
:10051000802292049A61F7E700CA9A3B586800204B
:100520001F85EB51B89E433F9C07CABEA775213F6C
:10053000A86E002030B5BDB0344B0193344B00930E
:10054000344B354A0021012004F0C8FF192000F087
:1005500067F9D0231B06802292045A62FFF7E0FE5F
:100560000BE0D02424068025AD046561642000F0F2
:10057000A9FDA561642000F0A5FD0121642004F01F
:10058000C7FF0028EDD1FA30800005F02BFA34A81F
:1005900004F0F6FE34AB0022002127A804F0ECFDA5
:1005A00027AB1E4A1E4939A804F030FE05F00EFEA6
:1005B00002001C4B39A91C4804F062FE1B4B00933F
:1005C0001B4A002327A93BA804F08EFE34AB01226E
:1005D00027A902A804F07CFB3BA902A804F0D8FBE1
:1005E000142002F091F9134CA0600922124902F084
:1005F000D5F9A06813F0BEFBE060142323610F4A15
:10060000002302A804F034FCF9E7C046FD06001000
:10061000D9060010C90600107D06001008700110F0
:100620006053011070530110A86E002021040010C7
:1006300080F0FA02586800207C53011000E1F505B3
:1006400070B50C0000F042FE06000D000A4A0023BF
:1006500001F012FA20606160074A0023300029008F
:1006600001F00AFA100053019B1A9A001218D200E6
:10067000A260002070BDC04640420F0010B5E121CD
:100680000F4C4902200000F0E1FE0221002000F0A2
:1006900091F80221012000F08DF8236BC022120294
:1006A0001340084A1360002301220821200000F0B3
:1006B0009BFE0121200000F0ADFE012010BDC046D0
:1006C000004003403050034010B5024800F04EFE99
:1006D000012010BD0040034010B51000002208E0CA
:1006E000054B9B699B06FBD40C78034B1C600132C5
:1006F00001319042F4D810BD00400340F0B5DE4611
:1007000057464E464546E0B583B08B4692469946DD
:1007100000F0DCFD06000F000023984612E0002BDD
:1007200001D1002A23D101230C9A137037E0012351
:100730000C9A137033E06B4607331B780370012368
:100740009C46E044D04529D200F0C0FD801BB94151
:100750004B465B014A469B1A9B004B44DB00DD176E
:100760001A002B00121A8B411000002BD7DD01005C
:100770000F4800F0ADFE0028D9D058464044002272
:100780006B46D91D002AD6D1094B9B69DB06FBD4E9
:10079000074B1B680B7001320131F3E7D04640462E
:1007A00003B0F0BCBB46B246A946A046F0BDC04669
:1007B0000040034010B58300084A9A18126840248C
:1007C0005440C0222240064CA44663441A60C00034
:1007D000044B9C466044416010BDC04604C00140CB
:1007E00004D001400040014080000C4B9C46604416
:1007F00000290ED00823002A0DD0042213430268DA
:1008000053400C22134080225201944660440360FE
:1008100070470023EFE70022F0E7C04604C0014024
:1008200010B501238340D022120693629361052103
:10083000FFF7C0FF10BD00000FB400B583B008483B
:1008400003F082FB049B002B07D005A9019118003F
:1008500003F08AFB034803F077FB012003F0B6F9AD
:1008600088530110AC700110EFF3108072B6034B87
:100870001B68002BFBD0BFF35F8F70472C0100D0AB
:10088000BFF35F8F024B00221A6080F3108870471D
:100890002C0100D0F8B506000C001500FFF7E4FFAE
:1008A000E308F718F15C07222240012393400B4232
:1008B00005D1DBB20B433B70FFF7E2FFF8BD21002F
:1008C0002800FFF7B9FF0000054A1078431CDBB28F
:1008D0001370172B02D9130010221A707047C046EC
:1008E00038020020002307E0054A9A189200BFF35F
:1008F0005F8F0021116001331F2BF5D97047C0466F
:1009000040000034074B9B68103080001950BFF343
:100910005F8FBFF35F8F044B0021196082F3108853
:100920007047C04600ED00E0240100D00048704749
:1009300000E400E010B5FFF7F9FF002302E0034AEE
:1009400004C00133072BFAD910BDC04680808080D7
:10095000002A05D0044BC0225200995019607047FC
:10096000014A8023D150FAE700E100E010B50A0007
:100970001F230340012199404009FFF7E9FF10BD03
:10098000024B9B6810308000C058704700ED00E0BB
:1009900070B504000D00EFF3108672B60C4B1B68A7
:1009A000002BFBD0BFF35F8F2000FFF7E9FF094B5F
:1009B000984201D0A84205D1320029002000FFF75B
:1009C000A1FF70BD044B054AED21054803F052F923
:1009D000240100D0C101001010540110485401102E
:1009E000C8530110024B9C46614489000160704766
:1009F0004000003410B50400FFF766FF010020003E
:100A0000FFF7F0FFFF232371BFF35F8F10BD10B519
:100A10000400FFF759FF01002000FFF7E3FFFF2369
:100A2000237100236371BFF35F8F10BD10B50D4CB0
:100A300009E00D4B0D4A1A210D4803F01BF9200067
:100A4000FFF7D8FF08340B4B9C4209D22368002BD8
:100A5000F5D0012BEDD12000FFF7D9FF0834F2E7E4
:100A600010BDC0466C210020645401104055011097
:100A700084540110742100200004084370470000D2
:100A80000A4B1A68EFF3108172B61368002BFCD082
:100A9000BFF35F8F054B1B68BFF35F8F00221A60A7
:100AA00081F3108840BF002000217047FC700020B7
:100AB000F0B5DE4657464E464546E0B585B0EFF305
:100AC000058303221A4093469200B34BD3589846AD
:100AD0001B785B4507D101235A4693401A000393C4
:100AE000AE4B1A6015E1AE4BAE4A9221AE4803F010
:100AF000C1F85B004B44DB004246526992469A447F
:100B000053469E68DF68A94800F0AEFB801BB941E0
:100B1000002900DA07E1002F60DB53461C69A44B73
:100B20009C4244D043460820185E5346598889B2F7
:100B3000FFF7A2FF53465969A04704000D002300A8
:100B40002B434BD0002D3CDA30003900001BA9416B
:100B5000009001915346009801999860D960002552
:100B60005D5F002D00DADEE043465C696B005B19D7
:100B7000DB00E3189A68DB68801A9941002900DAE3
:100B8000D1E043461D81474608370023FE5E002E14
:100B90001FDB7500AD19ED006519009A019BA8686F
:100BA000E968121A8B41002B13DB2F00EDE7534647
:100BB0005C6920002369984700280FD06568246885
:100BC000BDE77A4800F050FB00196941009001919F
:100BD000C0E753461E804B463B80A4E053460022AC
:100BE0009B5E424613811269EFF3108372B611685F
:100BF0000029FCD0BFF35F8F42460221525E51466E
:100C00000A804246494651801269BFF35F8F002136
:100C1000116083F3108886E043461A69EFF3108170
:100C200072B61368002BFCD0BFF35F8F43469B88DE
:100C30001BB2994601235B42424693801369BFF37E
:100C40005F8F00221A6081F3108818E026000023CD
:100C5000F55E002D0BDB6C006419E4003C19009A72
:100C6000019BA068E168121A8B41002BEEDA4B461B
:100C70003380634600229B5E994663461D804B4647
:100C8000002B56DB43465F694B465B004B44DB0061
:100C90009C46BC446346DC689B68009301944646CE
:100CA0000836D4E700234246937141460831434653
:100CB0000820185E11E001225242D317A260E360BF
:100CC000434608229B5E834206D00D80434608229D
:100CD0009B5E2380434618812800431C2DD0434649
:100CE0005A6943001B18DB00D418D55E63881BB219
:100CF000002BE0DB2100EFE75B4604339B002B4A2F
:100D00009C502A4800F0B0FA241A8D41002D3ADC9C
:100D100037D0264B039A5A63434608229B5E994676
:100D2000002B00DBE5E643469B881BB2002B00DB73
:100D300072E743469B79002BB4D1434608229A5E62
:100D4000002A20DB53009B18DB0042465269944680
:100D500063449C68DD68631C01D16B1CD1D0134BCC
:100D6000996A601A5A4604329200D3585B1A984224
:100D7000C2D30E4B1A6A012359468B401342C0D18D
:100D8000BAE7002CC5D040BF05B0F0BCBB46B246A8
:100D9000A946A046F0BDC046986E00203C700540B4
:100DA0005455011050560110805501100040054067
:100DB000B10A0010F8B5CE46474680B50600884611
:100DC00091461F00C160FFF77FFD1B4B9C466044AE
:100DD000800030614B463370BBB27381D022120663
:100DE00012787270012252423281B2809B18738055
:100DF000002406E0631E65002D19ED00726953534F
:100E00000134BC42F6D34B469A000C4BD650012419
:100E10004B469C4043461C6209494846FFF7B8FDD3
:100E200001214846FFF7A2FD064941440C60C0BCC1
:100E3000B946B046F8BDC04640000034986E002068
:100E4000B10A00103820000010B5064B1B69002BBA
:100E500001D0044810BD044B044A6521044802F047
:100E600009FFC0463C020020C4550110385601104D
:100E700080550110F0B5C64600B504000069EFF3D7
:100E8000108C72B601680029FCD0BFF35F8F02217D
:100E9000665E7500AD19ED00616988464544002E17
:100EA00002DB0020295E61802169BFF35F8F002093
:100EB00008608CF31088002E2EDB069929610799B3
:100EC0006961AA60EB606B8801335B04590C002BED
:100ED00000D1012169803000FFF7CEFD2269EFF3D8
:100EE000108172B61368002BFCD0BFF35F8FA3880C
:100EF0002B80A6802369BFF35F8F00221A6081F3E5
:100F00001088E368217801328A4005498C466344A1
:100F10001A6080BCB846F0BD01204042F9E7C046E7
:100F20003C20000070B582B0060014001D0008AB24
:100F30001B78002B07D100F0C9F922002B00121AF0
:100F40008B41002B0ADB079B0193069B0093220039
:100F50002B003000FFF78EFF02B070BD0020FBE7D2
:100F600010B5030008145A8990422FDA4200121873
:100F7000D2005869844662441C69EFF3108C72B643
:100F800020680028FCD0BFF35F8F508880B209042E
:100F9000090C884212D000201A69BFF35F8F00212C
:100FA00011608CF31088002811D0DA681B780131A9
:100FB0009940074B9C466244116008E0054908438C
:100FC00080B2508001229A710120E5E7002010BD17
:100FD0003C2000000080FFFFF0B585B006000F0048
:100FE000EFF30583002B1AD106246442E517A419F8
:100FF0007D418D4202D803D1844201D900240025CD
:1010000000F064F922002B00121A8B41002B0BDC3C
:1010100008D03000390000F06BF905B0F0BD1C4875
:10102000FFF70AFC002AF4D0FFF70EFF002302931B
:101030000193184B009322002B00FFF773FF002849
:1010400018DAE6E7002300E00023002BE1D1124B81
:101050001A68EFF3108172B61368002BFCD0BFF34F
:101060005F8F0D4B1B68BFF35F8F00221A6081F307
:10107000108820BF094B5B6A9D42E5D80749896A01
:10108000A14203D29D42DDD00123DEE70123DCE74C
:10109000E8550110810A0010FC7000200040054056
:1010A00070B504000D0000F011F900196941002924
:1010B00002DBFFF791FF70BD012040420049F8E7D5
:1010C000FFFFFF7F10B5FA2292000023002101F0FC
:1010D000CFFAFFF7E5FF10BDF0B5CE46474680B525
:1010E00085B005000C00EFF30583002B15D0474BAE
:1010F0005B6A8B4209D3454A926A82420BD28B4289
:1011000001D0012002E0002000E0002005B0C0BCBA
:10111000B946B046F0BD0120F8E7FFF795FEC36879
:101120009946037898462E002700484600F09CF820
:1011300002000B00B61A9F41434604339B004A4607
:101140009B58181A0023BB420FDC0CD020BF2F4B3A
:101150005B6A9C4224D82D4A926AAA4222D29C42BF
:101160001CD00120D2E7B042F0D9FFF76DFE00237A
:1011700002930193264B00932A002300FFF7D2FE2F
:10118000061E11DD214B5B6A9C4221D81F4A926AE0
:10119000AA4232D29C4219D001231AE00020B5E7BE
:1011A0000020B3E70120B1E7184B5B6A9C4209D8E5
:1011B000164A926AAA4207D29C4201D00120A5E7B2
:1011C0000020A3E70020A1E701209FE7002300E023
:1011D0000023002B00D120BFFFF736FE3100FFF7C0
:1011E000BFFE0A4B5B6A9C420BD8084A926AAA422D
:1011F00009D29C4203D0012088E70123E9E70020BF
:1012000084E7002082E7012080E7C04600400540D7
:10121000810A0010004870470040054010B50B4B94
:101220001B69002B04D00A210948FFF7DBFB10BD26
:10123000FFF7F0FF0400032100F00CF81023032255
:1012400021000248FFF7B6FDEDE7C0463C02002052
:10125000FC70002010B5024A0248FFF71BFB10BDCE
:10126000705601100C6A00200200436A906A19004F
:10127000536A9942FAD17047416A00E0416A994243
:10128000FCD300E0416A994202D1816A9142F9D3CC
:101290007047F0B5C64600B5804614001D00FFF744
:1012A000E3FF06000F0022002B0092197B419942B8
:1012B00002D804D1904202D901225242D3174046AB
:1012C000FFF7DAFF80BCB846F0BD000010B5024859
:1012D000FFF7CAFF10BDC0460040054010B5020030
:1012E0000B000248FFF7D5FF10BDC0460040054087
:1012F00010B502000B000248FFF7BEFF10BDC0464C
:101300000040054070B5046BE30701D4200070BDB8
:101310000B4BC3180B4A1A60456A826AAD01AD18BF
:10132000AD02062000F064F9074900F067FB0100F8
:10133000280000F063FB0021FFF7D0FFE6E7C0467E
:1013400030300000010300004E0E000070B50400B4
:101350000E001500FFF7D6FFE16A4E403540024B04
:10136000E3181D60206370BD2C100000054B9842EF
:1013700005D0162201239340034A136070471722B9
:10138000F8E7C0460080034000E0004070B505006B
:101390000C00062000F02CF9C000210000F02EFB0C
:1013A0000130C60907D00E4B9E4215D840083400C4
:1013B0003F26064000E001246C62AE62002200215C
:1013C0002800FFF7C3FF062000F012F98000A101FA
:1013D000891900F013FB70BD0026024CECE7C046F3
:1013E000FEFF0000FFFF000010B505394901013A7A
:1013F000D2001143002B09D002220A43012B07D04F
:10140000002111436E22FFF7A1FF10BD0022F4E777
:101410000421F6E710B5002900D010211022FFF7B3
:1014200095FF10BD002909D00A22064B9C46604456
:10143000434258414000044BC25270478022520040
:10144000F3E7C0460080FCBFFC72002070B50500C9
:101450000C00062000F0CCF8002828D0164B9D4246
:1014600026D0162201239340144A1360124B9D424A
:1014700020D0162301229A40114B1A60114B1B6891
:1014800011009943FAD100212800FFF7CBFF21007A
:101490002800FFF77BFFEB6A70225A407E2313403F
:1014A000094AAA181360094B2B630323AB6470BD70
:1014B0001722D7E71723DDE70080034000E0004054
:1014C00000F0004008C000402C10000001030000A4
:1014D000064B9A6A8369DB0606D5044B9B6A9B1A06
:1014E0008B42F7D9002000E0012070470040054002
:1014F000F8B5D646474680B506000D001700984659
:1015000044002418A400294B9C4664446368089A4C
:10151000934200D26260331FDBB29A46012B2ED970
:1015200080221201C0239B01E3181A60B300204AF5
:101530009958002907D0506900F060FA431C580000
:10154000C0180338FDD27F0122685740E0221740BF
:1015500080235B01E3181F605246012A1AD98023B9
:101560009B01E318802212011A60089B6360B60099
:101570000F4B4246F250C0BCBA46B046F8BD012DF2
:10158000CED10322C0239B01E3181A60A368DB07B6
:10159000FCD5D8E72168694003220A401A60A36895
:1015A0000122AA401A42FAD0D9E7C0460080004082
:1015B000206A0020F0B583B005000E001700180067
:1015C000089900F01BFA0300089A140200943A00EC
:1015D00031002800FFF78CFF03B0F0BD10B582B0DA
:1015E000802464000094FFF783FF02B010BD000068
:1015F0008000014BC0587047206A0020F0B5C646F5
:1016000000B504000E0017001D00364800F0F6F982
:101610008046354BFA18354B9A4238D801003800CD
:1016200000F0ECF90200103A98235B009A4234D89B
:101630006B1E062B37D8069B013B062B33D83F0980
:10164000474536D32D04069B1A0315432368002B08
:1016500035DB274B9C4243D00C2301229A40254B7B
:101660001A60254B1A60254B1B6811009943FAD16B
:101670002660A060224BE218212313602368002B10
:10168000FCDAE5600823136080BCB846F0BD1D4B52
:101690001D4A11211D4802F0EDFA1D4B1A4A19216D
:1016A0001A4802F0E7FA1B4B174A1C21174802F0B0
:1016B000E1FA194B144A2321144802F0DBFA22689C
:1016C0003F231340B342C4D1A3681B051B0D8342C3
:1016D000BFD1E368EE22D2021340AB42B9D1D3E7C7
:1016E0000D23BAE7001BB70080E84BD380F8A9327E
:1016F00000C0024000E0004000F0004008C0004090
:101700000430000094560110B0570110E456011047
:101710002C570110485701109457011080239B004B
:101720000B43014AD36270470080054010B50100A9
:1017300018231B8814221088984710BD10B501008B
:1017400018231B8816221088984710BDF0B5C6468E
:1017500000B507000E0000250123984600E0013582
:10176000B5420AD2AC003C192068FFF7DFFF2060C9
:101770000028F4D100239846F1E7404680BCB846E3
:10178000F0BD0000074BAA2212011A608D22520000
:10179000DA60054B054A1A60024B5B68002BFBDAE6
:1017A0007047C046004002400060024000B0FA00AE
:1017B00010B5040001E008CC9847024B9C42FAD3D4
:1017C00010BDC046545301107047000010B50248C8
:1017D000FFF7EEFF10BDC04618530110054B064A37
:1017E0001A60064B064A1A60064B1A68044B93436C
:1017F000FAD1704700E00040BFCDFBFE00F0004092
:10180000FE7F3C0008C00040044BDB6C002B03D182
:10181000034B8022D2021A607047C046000011506C
:101820004C201150044B054A1A60054B1B68DB43E2
:10183000DB01FAD17047C04600F00040FFFFFF0116
:1018400008C00040034B40229A675A671A67DA665D
:101850007047C04600F0014010B5FFF743F810BDD7
:1018600010B50C4A0C4BD21A92101400302A00D931
:10187000302292000849094801F090F804E0A200E3
:101880000749064BD15001342F2CF8D9034A054B98
:101890009A6010BDC001001000010010000000207F
:1018A000C101001000ED00E070B50420FFF7A0FEBC
:1018B000064900F0A3F805000024002C00DD70BDEF
:1018C000E0B22900FFF72AFF0134F6E740420F009B
:1018D00030B583B0274B00229A67FFF753FF264BA2
:1018E00001221A60234B5B6C012BFBD1234B03229B
:1018F0001A60204B9B6B012BFBD101330093043307
:101900001F4A01211F48FFF779FE052300931E4A55
:1019100001211E48FFF772FE1D4B00220221042008
:10192000FFF75CFE1B4D2B00002201210520FFF775
:1019300055FE194C2300002200210720FFF74EFE20
:101940002300002200210820FFF748FE8023DB004F
:1019500000932300002200210920FFF72BFE2B001B
:10196000002200210620FFF739FEFFF79DFF03B09C
:1019700030BDC046008000403CB0004030B0004068
:10198000002F685900800240008C864700C002404A
:10199000001BB70040597307006CDC0201480421AA
:1019A000014B1847600200204D170010124A936F38
:1019B0009B0815D29066D166002905D0FFE7FFE7A6
:1019C000FFE7516F106F704704B580210906C217F9
:1019D0005140002800D0C84313F08EFC002104BD04
:1019E000F0B5146E556E576F166FFFF7E3FF146670
:1019F000556657671667F0BD000000D0114A936F17
:101A00009B0813D210665166002905D0FFE7FFE757
:101A1000FFE7516F106F704704B5002801D0002018
:101A2000C04313F069FC002104BDC046F0B5146E3C
:101A3000556E576F166FFFF7E5FF146655665767CB
:101A40001667F0BD000000D094464A4A926F920893
:101A5000624601D228E0C046F0B5464E346E756E3F
:101A6000776F366F00F020F89446424A1466556648
:101A7000576716676246F0BD94463E4A926F9208D9
:101A8000624601D254E0C046F0B53A4E346E756EEF
:101A9000776F366F00F04CF89446364A14665566F8
:101AA000576716676246F0BD002B24DB11D0002972
:101AB0003EDA00B5C943404200D1013100F038F8A8
:101AC000C943404200D10131DB43524200D10133CE
:101AD00000BD002AEBD1002801D1002905D000204B
:101AE000C90FC90701D1C043410800B513F0FCFB81
:101AF0000022002300BD00B500290ADBDB4352426F
:101B000000D1013300F014F8C943404200D1013143
:101B100000BDC943404200D10131DB43524200D1F4
:101B2000013300F005F8DB43524200D1013300BD20
:101B3000002923D1002B18D1002A0CD0BC460D4F10
:101B400038667A6600210023FFE7FFE7FFE77A6F38
:101B5000386F67467047002801D00748010000B57C
:101B600013F0C2FB0022002300BD02000B00002086
:101B700000217047000000D0FFFFFFFF002B00D0C6
:101B8000BFE0130C28D1002AE7D080B4114F39668A
:101B90007A66FFE7FFE730B4040C7B6F396F1B04F4
:101BA00023433B667A66FFE7FFE7FFE7C04684B260
:101BB0007B6F3D6F1B0423433B667A66FFE7FFE7BD
:101BC000C04600232C042D0C7A6F386F0019694130
:101BD000B0BC7047000000D0F0B594460025140E4C
:101BE00001D112020835140F01D112010435940FEE
:101BF00001D192000235D40F01D152000135D40B2E
:101C00000134254F7C66254C3C660E0C93B2FFE7F1
:101C1000FFE7FFE73C6F6643360C7703BE4673432E
:101C2000DF0B5B04C01AB941130C7343DB18C91AEC
:101C3000CE086643360CB64493B273431F0F1B01A4
:101C4000C01AB941130C73431F0B1B05C01AB941CD
:101C5000860D8F023E436643360C092D24DB520A63
:101C60007243801A7703460A6643360C16235B1BC1
:101C7000DE40DF40BF1964466643821B7046043570
:101C800006330100D940A840C01900D30131A24257
:101C900006D20023F0BD0000000000D0FFFFFFFFD0
:101CA000121B0130F3D3F1E709277F1BFE40644686
:101CB000A2B27243801A00D20139220C7243130C73
:101CC0001204821A99410B00704604351337010043
:101CD000F940A840801900D30131002B02D1A24263
:101CE0000AD2F0BD013000D30131121BFAD2013B00
:101CF000F8D1A24200D2F0BD013000D30131121B55
:101D0000F7E7F0B51C0C00D080E00CB400251C0AED
:101D100004D11B02160E3343120208351C0B04D1EA
:101D20001B01160F3343120104359C0B04D19B0099
:101D3000960F334392000235DC0B02D192185B41BF
:101D400001351C00971864410134464F7C66464CAF
:101D50003C660E0CFFE7FFE7FFE7C0463C6F6643BB
:101D6000360C7703BE4697B27743C01B00D20139C9
:101D7000C01B00D201399FB27743C91BC91B170C86
:101D800077437E04FF0B801BB941CE086643360CB7
:101D90000C2D33DBB644120B1F053A431B0B97B2D5
:101DA0007743C01B00D201399FB27743C91B170C80
:101DB00077433E043F0C801BB941860D8F023E43A2
:101DC000664329277F1BFE400C3D7746AF40BF1975
:101DD00030BCA2B2ABB272437343801A9941220C59
:101DE0007243130C1204801A994102000B00013750
:101DF000001BA941F9D2781E0021F0BD0C277F1BE2
:101E0000FE4077467F0BAF40FF19E0E700245D1CE2
:101E100007D0144F7D663966FFE7FFE7FFE7FFE76E
:101E20003C6F95B29EB265436643401BB141150CB1
:101E30001E0C6543664336042F0C3E432D04401BA5
:101E4000B141994204D202000B0020000021F0BDF4
:101E500001D19042F7D3801A994101349942F2D3CB
:101E6000F6E70000000000D0FFFFFFFF48404140C0
:101E7000484018B41B4B5B68FC46019308BD04DF67
:101E80004321001018B4174B1B68FC46019308BD92
:101E900000DF4D2100109446134A926F920809D238
:101EA000624618B40F4BDB68FC46019308BD0CDF9B
:101EB000052400100C4AF0B5146E556E576F166F5E
:101EC0006246FFF7EEFF084A1466556657671667C5
:101ED000F0BD18B4034B9B68FC46019308BD08DFB6
:101EE000A9220010D86E0020000000D0FFB550409D
:101EF0004240504059404B40594000E0FFB5154F1B
:101F00004C00640D03D0BC4204D10C0314D8002053
:101F1000090D09055C00640D03D0BC4204D11C030B
:101F20000AD800221B0D1B0501264B4009D44B404B
:101F300003D58B4200D18242FFBD9942FCD1904231
:101F4000FFBD0B43DB1803431343F5D0C9434918C6
:101F5000FFBD0000FF07000000B5FFF7CFFF804185
:101F600000BDC04600B5FFF7C9FF01D9002000BD84
:101F7000012000BD00B5FFF7B9FF01D9002000BD69
:101F8000012000BD00B5FFF7B1FF804100BD012079
:101F900040054A00121804D85A00121801D800202F
:101FA00070470120704700000021002805D17047CC
:101FB000C1174840401AFAD0C90713B5064B1B6831
:101FC00098470CBC441CA2401005120B0349091B86
:101FD00009051943114310BDF86F00201F040000CC
:101FE00010B54C00620D8023D218DB00D21A5B05BD
:101FF0007E2A10DD9E3A13DACC17090349081943EB
:102000005242D140640001341532202A05DAD04012
:102010000843604310BD002010BD0846604310BD5A
:10202000C80FC018013810BD18B4044B5B6AFC46D9
:10203000019308BD24DFB52500100000D86E0020F4
:1020400070B513231C78012C14D0012C14DC022C45
:1020500002DC1F4A1F4B9A641F48FFF767FB1F4BA8
:10206000186070BD99001A481A4A885001331F2B16
:10207000F8D9EAE70023FAE71948FFF75FFB050004
:102080001848FFF75BFB023803789B007F2B19DDB4
:10209000802229000F4800F081FC022CD7D1124B7E
:1020A0001A88B5231B029A4209D1104B1A88104B8B
:1020B0009A4204D10F4B1A880F4B9A42C7D0002086
:1020C000FEF7BAFB0D4B0E4A33210E4801F0D2FD4C
:1020D00009210010D86E00204C330000F86F00205A
:1020E000534400005346000054380000D838000024
:1020F000494600009C38000059460000BC570110BA
:102100005C5801100058011007B56046002800D146
:1021100000BE01880A0A0230DF2AFAD1C9B2820859
:1021200004D3028840880004104300E00068024A9B
:102130005050039007BD0000D86E00200FB403BCC0
:102140000CBCF0B50124E407634000E0F0B50C0DD1
:10215000CF0F661E3605891B640503D3C943404271
:1021600000D30131640D03D0661CF60A07D0E41BCE
:1021700000207F00791C89078912803C24031D0DF3
:10218000DF0F6E1E36059B1B6D0503D3DB435242EA
:1021900000D301336D0D03D06E1CF60A07D0ED1B82
:1021A00000227F007B1C9B079B12803D2D032F1B71
:1021B000661B58D4A446202E46DA20371400BC40B3
:1021C0001D00BD40F24033412A4380185941CB0FD6
:1021D00005D0C943C0430022644250415141624688
:1021E0004D0D28D10D0D07D100281FD024194041D5
:1021F0004941013A0D0DF9D0640006D3013000D3F6
:102200000131002C01D140084000013A0BD4941C4C
:10221000E40A04D112051144DB071944F0BDD907C3
:10222000204B194300E0D9070020F0BD0029DDD183
:10223000002CDBD1F0BD0132C6074008CD07284392
:102240004908002EE1D0D9E73C2E29DA203E40375C
:102250001400BC4000D00124F24014431A00BB40DB
:102260001C43D317ACE7AC46202F08DA2036040015
:10227000B4400D00B540F84039412843A5E73C2F54
:102280000CDA203F40360400B44000D00124F8406E
:1022900004430800B1400C43C117EAE710001900DD
:1022A000002494E70000F07FF0B50C0D661E3605A3
:1022B000891BE60A6405640D02D0651CED0A04D092
:1022C000002001210905803C2403A4461C0D671E43
:1022D0003F05DB1BE70A6405640D02D0651CED0AAF
:1022E00004D0002201231B05803C24037740644472
:1022F00097B484B296B27443070C7E43150C6F43B7
:1023000080B26843361802D3012000043F1830041D
:10231000350C00197D41844688B29AB250430C0CAA
:1023200062431F0C7C438EB27E43921902D3012676
:102330003604A4191604170C3618674101BC81B283
:102340009AB25143040C62431B0C5C4380B2584365
:10235000121802D30120000424181004130C401892
:1023600063412D185E410020474106BC88B293B2FC
:1023700058430C0C6343120C544389B251435B180D
:1023800002D301210904641819041A0C09186241C6
:102390006D1856410020474118BCF902720D1143D7
:1023A000F0026A0D1043ED020A0D03D16D19404190
:1023B0004941013B124E9B1B7600B3420ED26D0089
:1023C00007D30130002671416646354301D14008EC
:1023D00040001B05C918E4072144F0BD0BDA0133A6
:1023E00006D1013004D101314F0D01D04908F2E787
:1023F000E1070020F0BD013631050020EBE70000C9
:10240000FF030000F0B51C0D671E3F05DB1BE70A4C
:102410006405640D02D0661CF60A04D00022012374
:102420001B05803C2403D0252D060026F6432E668E
:102430001E096E66CE0FF619B44649004F0D02D044
:102440007E1CF60A03D000200021403F3F033E1BC4
:10245000B600B444013F7F05C91B49082E6F013601
:1024600076089C02950D25437543ED137543AD1316
:1024700001356D10F603761B0CB4CC02450D2C43D0
:10248000A2B2B3B25A43270C7B43350C6F43A4B2BC
:102490006C431B1902D3012424043F191C041D0C96
:1024A000A4187D4124196D41009A91B2ACB26143E8
:1024B000170C7C432B0C5F4392B25A43A41802D3EF
:1024C00001221204BF182204230C52187B41019CE4
:1024D0006C431B19520ED9010A434401A01A81B260
:1024E000B2B2514303145A43360C734387B2774355
:1024F000D617D21900277E4136049B191704160CF3
:102500007F185E417316ED18F30100268033754184
:10251000A90F06D16400690AE8055B0A184309D2CD
:102520002FE00422944480337541A90AA8059B0A30
:10253000184326D3404149412404009A019B0D00D1
:102540005543641B4343E41A95B286B27543170C96
:102550007E43030C5F4392B25A43B61802D3012262
:102560001204BF183204330C52197B4152429C4171
:10257000002C02D40022013051414008CA07104308
:10258000490802B06246D7079210084BD218084B90
:102590009A4203D212058918C919F0BD0020002AF9
:1025A00001DC3900F0BD01331905F5E7FD0300003A
:1025B000FE070000002200B5203200F004F80800F9
:1025C00000BD000000220B150AD410B5944600F09F
:1025D00031F81414013400DA0021CB17144C2047D1
:1025E0000020002170476244343A0CD40C2A07DAE8
:1025F00004009140904052422032D440214310BD0B
:10260000D843D94310BD203207D40C4694405242DF
:1026100020321141D040204310BD0800C91720329C
:1026200003D452422032104110BD1800190010BDD1
:10263000E72500100A0DCC0F531E1B05C91A5205C1
:1026400003D3C943404200D30131520D03D0531C80
:10265000DB0A07D0121B00206400611C8907891265
:10266000803A1203014BD21A70470000FF030000AA
:1026700051434343C9188C46110C83B24B4310B4E9
:10268000040C614392B280B2504362431C041B0CA1
:10269000001910BC59411304120CC0185141614477
:1026A0007047000048404140484000239C46114B81
:1026B0005B68184700239C460E4B1B6818470E4A60
:1026C000936F9B0804D200239C460A4BDB68184793
:1026D000F0B5146E556E576F166FFFF7F4FF064A8C
:1026E0001466556657671667F0BD00239C46014B7C
:1026F0009B681847FC6F0020000000D0491A002892
:1027000008D1084670470000C10FC90700D54042F4
:10271000002817D0F44603B40B4B1B68984706BC3F
:1027200081409E384042803107D20B0607D04900D5
:10273000490AC0051043084360470130F8E7490AD9
:102740008902F5E770470000F86F002041000A0E8B
:1027500080231B067E2A0BDD9E3A0BDAC11740024E
:10276000400818435242D040490001314843704765
:1027700000207047C00FC01801387047C0420DD309
:1027800000B540004008002100F012F8002801D4F4
:10279000404200BD8020000600BD0000034BDB6905
:1027A000FC4618471CDFF12800100000FC6F0020D9
:1027B00000239C46014B5B6A18470000FC6F002019
:1027C00070B513231D782A48FEF7B8FF0400012DC9
:1027D00011D0012D09DDA31E1B789B007F2B40DD4E
:1027E00080222100234800F0D9F82348FEF79EFFFD
:1027F000224B186070BD542201001E4800F0CEF834
:102800001F4B1A881F4B9A421CD1A7239B011A8881
:102810001D4B9A4216D11D4B1A881D4B9A4211D15D
:102820001C4B1A8894239B019A420BD11A4B1A888D
:102830001A4B9A4206D11A4B1A681A4B9A4201D186
:10284000152307E01848FDF7F7FF99001748094AD4
:10285000885001331F2BF8D9144A064B1A62DA61EB
:10286000B7E7134B134A4221134801F003FAC0465D
:1028700053460000FC6F00204C330000F86F00202E
:10288000EE290000C40F0000C20D0000962B0000CE
:10289000C0B50000182B0000CC2A000010B50000C5
:1028A000FC2C000051ED876408700110BD28001059
:1028B00070580110FC580110A458011007B560466B
:1028C000002800D100BE01880A0A0230DF2AFAD1AE
:1028D000C9B2820804D3028840880004104300E093
:1028E0000068024A5050039007BD0000FC6F0020B2
:1028F0000021C2158032803201D0024A10470020E8
:1029000070470000CD2A000010B5040010F014FC40
:10291000002804D00419034B9C4200D810BD024883
:10292000FDF78AFF000004201059011070B5050062
:102930000C0010F0DBFA6C43002804D00419034BA0
:102940009C4200D870BD0248FDF776FF00000420CD
:102950001059011010B50C0010F098FF002804D099
:102960000419034B9C4200D810BD0248FDF764FFD8
:10297000000004201059011010B510F0E7FB10BD45
:1029800001480421014B1847700200204D17001028
:10299000014B1B681847000070020020014B5B6868
:1029A000184700007002002010B5EFF3108272B6D5
:1029B000074B1B68002BFBD0BFF35F8F416800689B
:1029C000BFF35F8F024B00241C6082F3108810BDA0
:1029D000340100D030B514001D00EFF3108272B640
:1029E000074B1B68002BFBD0BFF35F8F0460456073
:1029F000BFF35F8F024B0021196082F3108830BD56
:102A0000340100D030B5010014001D00EFF3108038
:102A100072B60A4B1B68002BFBD0BFF35F8F0A68AE
:102A20004B680C604D60BFF35F8F044900240C605D
:102A300080F310881000190030BDC046340100D06A
:102A40009A4200D288547047704710B5002802D0CF
:102A50000B684968984710BD0100002007E083001B
:102A60001B185B00501C08601078C01830380A68CA
:102A70001378303BDBB2092BF1D97047F0B5DE4655
:102A800057464E464546E0B583B093461F000C9B23
:102A90009A460D9C0E9B99460F9B9B0703D0B84608
:102AA0000F00060022E00192A34688464E46B94632
:102AB0000700B44207D2551C4B4641462020B84778
:102AC00001342A00F5E73D004F465C46019B9B46DA
:102AD000B1464646B84637002E0007E0013C551C7B
:102AE0005346185D43463900B0472A00002CF5D103
:102AF00035003E0047460F9B9B0707D4100003B0EC
:102B0000F0BCBB46B246A946A046F0BDB0464E4614
:102B1000B9462F005D46531BB342EFD2541C4B46BF
:102B200041462020B8472200F5E7F0B5CE4647469B
:102B300080B585B0944698460C9D0D9C0EAB1B78D5
:102B40009946109A119B129EB7071CD4002B0CD0EB
:102B5000F7070AD54F46002F02D10C37374204D071
:102B6000013B02E030272F550134944201D21F2C43
:102B7000F8D9F70707D59C4205D21F2C03D8302778
:102B80002F550134F5E7F70615D5770505D4002C48
:102B900003D0944224D09C4222D00F9A102A2BD0EA
:102BA0000F9A102A30D00F9A022A35D01F2C02D843
:102BB00030222A5501341F2C05D84A46002A31D02C
:102BC0002D222A5501340396029301940095434621
:102BD0006246FFF753FF05B0C0BCB946B046F0BD32
:102BE000621E012C06D00F9F102F01D01400D4E7D5
:102BF000023CD2E71400D0E7B206D1D41F2CCFD8C4
:102C000078222A550134D1E7B206CCD51F2CCAD878
:102C100058222A550134C9E71F2CC7D860322A55DB
:102C20000134C3E7720703D52B222A550134CAE7C2
:102C30003207C8D520222A550134C4E7F0B5DE4654
:102C400057464E464546E0B593B081468A460892BF
:102C500009931CAB10CB1B789B461E9D219B98466D
:102C6000002C03D1102342469A4390468023DB0078
:102C700046461E4042461A4212D0002C22D0002660
:102C80000EE03033D9B2771C0AAB995529002000E9
:102C9000FEF7B4FEAC4216D31F2F14D83E0004003A
:102CA00029002000FEF7AAFECBB2092BE9D9424643
:102CB000920605D54121C918C9B20A39C9B2E2E75D
:102CC0006121F8E7270043460693209B05931F9B4D
:102CD000049303955B46029301970AAB0093099B0B
:102CE000089A51464846FFF720FF13B0F0BCBB4698
:102CF000B246A946A046F0BDF0B5DE4657464E4660
:102D00004546E0B595B0089009910A920B931E9E36
:102D10001F9C20AB1B789B46229B9946239D269B9C
:102D20009A463300234303D1103352469A439246C6
:102D30008023DB0057461F4052461A4219D0330009
:102D400023432DD0002714E03033DAB27B1C9846A1
:102D50000CABDA554A462B0030002100FEF78CFE02
:102D6000A5421FD819D043461F2B1BD84746060043
:102D70000C004A462B0030002100FEF77DFED3B246
:102D8000092BE1D95246920605D54122D218D2B27A
:102D90000A3AD2B2DAE76122F8E7B145E3D901E0B5
:102DA0000023984653460693259B0593249B049342
:102DB0004B4603935B460293434601930CAB00934F
:102DC0000B9B0A9A09990898FFF7AFFE15B0F0BC63
:102DD000BB46B246A946A046F0BD0000F0B5DE46AF
:102DE00057464E464546E0B591B083468A460C921A
:102DF00098461A9C08941B9D099522002B002000E0
:102E00002900FFF7C4F8002800D0E5E00122524273
:102E1000D74B20002900FFF7B5F8002800D0DBE0F1
:102E200001225242D34B20002900FFF795F80028D9
:102E300000D0D1E000220023089E3000099D290027
:102E4000FFF78AF8002800D0DDE00898099906907D
:102E500007918023DB001E9A1A400D921E9A1A4297
:102E600001D106231C930698079904000D000A005F
:102E70000600024300D1D1E0080D4005400DBE4CD4
:102E8000A44660440A03120BBC4B13431F00FFF718
:102E90008FF8BB4ABB4BFFF71CF8BB4ABB4BFEF796
:102EA000F1FF04000D000022B94B30003900FEF79D
:102EB000E0FFB84AB84BFFF70CF802000B00200007
:102EC0002900FEF7DFFFFFF78BF88146FFF770F868
:102ED00004000D00B14AB24BFEF7FBFF0022B14BDC
:102EE000FEF7D0FFFFF77CF80600AF4AAF4B20009B
:102EF0002900FEF7EEFF04000D003000FFF758F840
:102F0000AB4AAC4BFEF7E5FF02000B0020002900A6
:102F1000FEF7AFFF04000D0002000B00FEF7D9FF23
:102F20000A900B91A44BF31800261F0522002B00DA
:102F300020002900FEF7A6FF0E900F9122002B0023
:102F400000208021C905FEF794FF04000D00002237
:102F50009A4B0A980B99FEF79EFF0022984BFEF7BA
:102F600091FF02000B000A980B99FEF794FF0022D4
:102F7000944BFEF787FF02000B000A980B99FEF7AF
:102F80008AFF02000B0020002900FEF77BFF0200F1
:102F90000B000E980F99FEF77EFF0022774BFEF78D
:102FA00071FF32003B00FEF794FF06000F000400A3
:102FB0000D00069A079BFEF7E5FF002830D001239D
:102FC0005B429C46E14400227D4B30003900FEF715
:102FD00062FF04000D0023E01E9B04931D9B0393DE
:102FE0001C9B0293089A099B0092019343460C9AFA
:102FF0005146584600F0FCF811B0F0BCBB46B24652
:10300000A946A046F0BD0023002406930794069627
:1030100080231B069C46654407951AE700239946C2
:103020004B466333C62B1ED804261E9B1B0526D594
:103030002B0023430FD0644A644B06980799FEF790
:1030400099FF002879D00022614B06980799FEF776
:1030500083FF002871D01C9B4B4506DD4A46981A19
:10306000431E1C9303E00526DFE700231C93802307
:10307000DB001E9A1A431E920026002399461D9BD0
:103080009E4264D29F1B02231E9A1A400A921E9AE5
:10309000134202D0002E00D000274B46002B07D051
:1030A00022002B0006980799FEF7F5FE069007917F
:1030B0000022002308980999FEF74EFF002848D106
:1030C000444B1E9A1340049303971C9B0293069B48
:1030D000079C0093019443460C9A5146584600F0D1
:1030E00087F8002E00D187E71E9B9B063DD545251E
:1030F000441C4346020051462800D8474B46DA1785
:103100009B18534005220592013E0496002203922B
:103110000A3202924A46D00F0190009343462200A1
:1031200051465846FFF78AFD0A9B002B00D163E702
:1031300002005F460C9E1D9D54E01C9B002B9ED000
:103140000D9B002B9BD01C9B013B1C9397E70027FA
:1031500099E7069C079D22002900802000068446EE
:1031600061440B0006920793AAE76525C0E7C046B5
:10317000FFFFEF7FFFFFEFFF01FCFFFF0000F03FCD
:10318000FB799F501344D33FB3C8608B288AC63F56
:103190000000F83F61436F63A787D23F71A37909AD
:1031A0004F930A400000E03F1655B5BBB16B02409B
:1031B000EF39FAFE422EE63FFF03000000002C40EC
:1031C00000002440000018402D431CEBE2361A3F5B
:1031D00080842E41FFF7FFFF541C434651462020B8
:1031E000B8472200931BAB42F6D3100004E7C04659
:1031F000F0B5DE4657464E464546E0B595B00690DA
:10320000079193469946209F1E9A1F9B1000190014
:10321000FEF7BDFE002831D101225242BF4B1E985D
:103220001F99FEF799FE002837D101225242BC4B6C
:103230001E981F99FEF7A6FE00283DD10022B94B2B
:103240001E981F99FEF79EFE002850D10022B64B13
:103250001E981F99FEF780FE002848D10022002307
:103260001E981F99FEF778FE002850D1002398463B
:10327000229B5B0500D4B6E0002458E0229B039318
:10328000219B029303230193A84B00934B465A467C
:1032900007990698FFF7F2FB0EE1229B0393219B0F
:1032A000029304230193A24B00934B465A4607997D
:1032B0000698FFF7E3FBFFE00423229A1A402299C5
:1032C0000B4210D09B4B002A0FD00422229903916D
:1032D00021990291019200934B465A46079906980C
:1032E000FFF7CCFBE8E0944BEDE70322EEE7229BEF
:1032F0000493219B039302971E9B1F9C00930194B0
:103300004B465A4607990698FFF768FDD4E01E9A87
:103310001F9B00200021FEF7ACFD1E901F91012392
:103320009846A5E70CAB30221A55013F01341F2CFB
:1033300001D8092FF6D81E981F99FEF751FE0500F7
:10334000FEF736FE02000B001E981F99FEF791FD56
:10335000FA007A4B9B181A685B680A920B93FEF787
:10336000B8FD08900991FEF75FFE0600FEF71CFE0F
:1033700002000B0008980999FEF77BFD089009915F
:1033800000226F4BFEF7FEFD00282ED001363000E4
:10339000FEF70AFE02000B000A980B99FEF7E2FD09
:1033A000002801D001350026002F2CD12800FEF77F
:1033B000FFFD02000B001E981F99FEF75AFD060044
:1033C0000F0000225E4BFEF7C7FD002846D1002209
:1033D0005B4B30003900FEF7D5FD00283ED1EB07EE
:1033E0003CD501353AE0062746E70022544B0898C1
:1033F0000999FEF7B1FD0028D6D1002E01D0F307C0
:10340000D2D50136D0E7AA461F2C11D8013F0A2198
:103410003000FEF7F3FA651C30310CAB19550A2168
:103420003000FEF7EBFA092E0ED906002C00EBE770
:1034300055461F2C0CD87B1E002F09D00CAA30211A
:1034400011551F000134F4E72B0055461C00F0E72E
:103450001F2C03D80CAB2E221A5501341F2C10D868
:103460000A212800FEF7A2FA661C30310CAB195570
:103470000A212800FEF79AFA051E01D03400EDE774
:1034800034000323229A1340012B1CD01F2C06D892
:103490004346002B32D00CAB2D221A550134229B0F
:1034A0000393219B029301940CAB00934B465A4625
:1034B00007990698FFF7E2FA15B0F0BCBB46B24692
:1034C000A946A046F0BD219B002B13D04346002BFC
:1034D00002D10C3313420FD0219B013B21931900E1
:1034E00003E00CAB30221A5501348C42CED21F2C93
:1034F000F7D9CBE72199F8E72199F6E7229B5B07FB
:1035000004D50CAB2B221A550134C8E7229B1B07AC
:10351000C5D50CAB20221A550134C0E7FFFFEFFFE1
:10352000FFFFEF7F65CDCD4165CDCDC1C059011005
:10353000C4590110B8590110B4590110B05B011001
:103540000000E03FF0B5DE4657464E464546E0B542
:1035500093B082468B4690461193002900D1EBE24E
:1035600000275546119B1878002800D1E7E225284E
:1035700009D07C1C43463A005946A847119B0133A9
:1035800011932700EEE7013311930024119A11786B
:103590000B00203BD8B2102803D88300D048C35872
:1035A0009F460B00303BDBB2092B2CD92A292FD0A8
:1035B00000230A93119B1A782E2A39D000239A46A9
:1035C000119A1378683BD9B2122976D88B00C54975
:1035D000CB589F4601231C4301321192D6E70223A8
:1035E0001C4301321192D1E704231C430132119292
:1035F000CCE708231C4301321192C7E710231C4378
:1036000001321192C2E711A8FFF726FA0A90D1E71A
:103610001C9B1A1D1C921868002804DB0A90119B41
:1036200001331193C6E702231C4343420A93F6E792
:103630008022D20014435A1C11925A781300303B56
:10364000DBB2092B04D92A2A07D000239A46B7E710
:1036500011A8FFF701FA8246B2E71C9B1A1D1C92C3
:103660001868002804DB8246119B01331193A7E7F9
:103670000020F8E780235B002343511C119152780E
:103680006C2A01D01C0018E0C0239B001C430131B0
:10369000119112E080232343511C11915278682A22
:1036A00001D01C0009E0C0231C430131119104E04A
:1036B00080235B001C4301321192119B1878030098
:1036C000253BDAB2532A00D92CE29300864AD3581C
:1036D0009F4680239B001C4301321192EDE780231B
:1036E0005B001C4301321192E7E7782809D0582883
:1036F00038D06F2838D0622838D010239C430A264F
:1037000000E01026582833D0692803D0642801D05F
:103710000C229443630501D50122944369282AD0E1
:10372000642828D0A30500D59FE0E30500D5B8E0C4
:10373000630600D4CAE01C9A111D1C911168FF2277
:103740000A4005940A9B0493534603930296002370
:103750000193009243463A0059462800FFF76EFA5B
:10376000070027E01026CDE70826CBE70226C9E7A9
:1037700020221443C8E7A30520D4E30550D46306F0
:1037800066D51C9A111D1C911168FF220A40D3179F
:10379000D118594005940A9B04935346039302960B
:1037A000D20F0192009143463A0059462800FFF794
:1037B00045FA0700119B01331193D3E61C9BDA1DD8
:1037C00007218A43110008311C91116853689C46F7
:1037D000DB170C930D930C9A0D9B100048400E9034
:1037E000624653400F930E980F990C9A0D9B801AC6
:1037F00099410E900F9108940A9B079353460693A4
:103800000496002305936346DA0F0292009001911B
:1038100043463A0059462800FFF76EFA0700C9E709
:103820001C9A111D1C911268D317D1185940059488
:103830000A9B0493534603930296D20F0192009180
:1038400043463A0059462800FFF7F8F90700B1E768
:10385000230605D51C9A111D1C910023D25E96E704
:103860001C9A111D1C91126891E71C9BDA1D0721FF
:103870008A43110008311C9108940A9B0793534610
:1038800006930496002305930293136854680093EB
:10389000019443463A0059462800FFF72DFA0700E5
:1038A00088E71C9A111D1C9105940A9B04935346AA
:1038B00003930296002301931368009343463A0052
:1038C00059462800FFF7BAF9070073E723060DD51C
:1038D0001C9A111D1C9112681204120C31E7C0468B
:1038E000CC590110105A01105C5A01101C9A111D7C
:1038F0001C91126825E746281AD01C9B0733072223
:1039000093431A0008321C9204940A9A0392524676
:1039100002925C681B680093019443463A00594642
:103920002800FFF765FC0700119B0133119319E68E
:1039300020231C43E1E7672801D0472802D18023D8
:103940001B011C43452801D0472801D120231C43DB
:103950001C9B0733072293431A0008321C920494DD
:103960000A9A0392524602925C681B680093019483
:1039700043463A0059462800FFF730FA0700119BEA
:1039800001331193EEE502231A00224092462342AE
:103990001FD001241C9B1A1D1C927A1C914618787A
:1039A00043463A005946A8475346002B16D1119B6F
:1039B000013311934F46D5E5561C43465946202006
:1039C000B847230032005C1C9D42F5D83D0017002B
:1039D000E0E701233A002F000A9DF4E74A46A94692
:1039E0000A9D06E0571C434659462020C84734002C
:1039F0003A00661CA542F5D84D469146D7E71C9B78
:103A00001A1D1C921B6899465346002B00D1013B9E
:103A10004E4601E0013613003278002A02D05A1EC9
:103A2000002BF7D14B46F21A10928023DB002600C0
:103A30001E401C4203D0524501D953461093022325
:103A40001A0022400B92234205D03A0037004C4620
:103A5000A946554620E03A00109B5F46B3462E002B
:103A600006E0551C434639002020B04723002A00B9
:103A70005C1C0A999942F4D835005E46BB46109406
:103A800037004C46A946554606E01D000134561C39
:103A900043465946C84732002078002804D0002FFA
:103AA000F4D06B1E002DF0D117004D460B9B002B60
:103AB00003D1119B0133119354E50A9F109B06E03B
:103AC000561C434659462020A847230032005C1C60
:103AD0009F42F5D81700ECE721231C431C9B1A1DBD
:103AE0001C921B6800930594082304935346039388
:103AF000102302930023019343463A0059462800BD
:103B0000FFF79CF80700119B013311932AE57C1CF9
:103B100043463A0059462520A847119B013311938B
:103B200027001FE57C1C43463A005946A847119BD5
:103B300001331193270015E50A4B9A4610E5AA4672
:103B4000474502D343465A1E00E03A0043465946D1
:103B50000020D047380013B0F0BCBB46B246A9469F
:103B6000A046F0BD492A00100CB410B584B00A007C
:103B700006AC08CC0394009401000448FFF7E2FC73
:103B800004B010BC08BC02B01847C046412A00105F
:103B900000B583B0009313000A0001000248FFF74C
:103BA000D1FC03B000BDC046412A001000B585B06D
:103BB000029003910121009313004A4202A9024896
:103BC000FFF7C0FC05B000BD4B2A001000BEFDE7AA
:103BD00003000A4A1268002A08D0084A1068C3186D
:103BE000074A9A4206D3054A13607047034A0549BB
:103BF0001160F2E701204042F7E7C046706E0020F6
:103C0000000004206073002010B5030008001100BC
:103C1000002B05D1044B1A685B6800F041F910BD18
:103C200001204042FBE7C0466856011010B5030072
:103C300008001400013B012B06D8012300222100BB
:103C400000F0E4F8200010BD01204042FBE7012015
:103C50004042704701204042704701204042704777
:103C60000300002002229A424041704710B5FFF73E
:103C7000ADFF000010B582B00C001900002A0CD076
:103C8000084B002A0BD00192009323000200064843
:103C900000F08AF90120FFF799FF044BF1E7034A8E
:103CA000F1E7C046005C0110105C011008700110C3
:103CB00010B5EFF30583002B00D000BEFDF786FDA5
:103CC000034C01E008CC9847024B9C42FAD310BD4C
:103CD000545301105C53011010B50300080011008B
:103CE0001B68984710BD0000F8B507000D001600CE
:103CF000437D002B02D0002400200CE0036811005B
:103D0000280098472DE03B7D10E0022115483B68D4
:103D10009847601C0134B44214DA002CF3DD2B19EF
:103D2000013B1B780D3B5A425341DBB22A5D0A2A04
:103D3000F0D1002BEED1A042E7DA211A28183B6817
:103D40009847E2E7B04203DA311A28183B689847EF
:103D5000002E06DDAD19013D2B780D3B5A42534133
:103D60003B75F8BD405C011070B505000368002B81
:103D700016D00C4B1C6805E0290004C92000FFF791
:103D8000B3FF2469002C09D02368002BF9D0064B1F
:103D90001B68002BF0D0A342F3D1EDE700232B608A
:103DA00070BDC046186E00201C6E002070B5050066
:103DB0000C000B68802B05D021684B1C2360641815
:103DC000257170BD0800FFF7CFFFF5E710B5FDF7CF
:103DD0007DFA074A002312184B41002B03DB0548EC
:103DE00011F092FA10BD01225242034BF7E7C04690
:103DF00040420F006C210020FFFFFF7F10B50248FA
:103E000011F06AFA10BDC0466C210020F0B5CE4614
:103E1000474680B583B006000D0090461C00FFF7B2
:103E2000D5FF81466B1C05D0002C08D0184F194BCC
:103E30001C6807E030000FF09DFF0500F4E7164F07
:103E4000F5E72469002C17D02368002BF9D0134B19
:103E50001B68002B01D0A342F3D12A0031002000BF
:103E6000B8474346002BECD06B46D91D0A230B7094
:103E700001222000B847E4E74B46002B05D128007B
:103E800003B0C0BCB946B046F0BDFFF7B7FFF6E7D8
:103E9000E93C0010186E0020D93C00101C6E002078
:103EA000F0B5CE4600B582B006000F0091460193F2
:103EB00028E0A368002B04D0390030009847002880
:103EC00027DC2469002C06D0144D2D68002DF0D07D
:103ED000A542F6D1EDE701990A00114B5B6A9942C0
:103EE00009D80F49896A49450FD29A4201D0012366
:103EF00002E0002300E00023002B08D10120002174
:103F0000FDF7ECF9074B1C68DCE70123F4E702201E
:103F1000404202B080BCB946F0BDC0461C6E0020D5
:103F200000400540186E002010B5064B1C6801E0EB
:103F300098472469002C03D06368002BF8D1F8E778
:103F400010BDC046186E002070B505000FF012FFBE
:103F500004000123012201002800FFF757FFFFF7AB
:103F6000E3FF200070BD000070B5A2B004000E0099
:103F7000FFF72CFF0500002301933300220001A965
:103F80000848FFF713FE040001A8FFF7EDFEFFF756
:103F9000CBFF002D02D1200022B070BDFFF72EFF15
:103FA000F9E7C046AD3D00100FB400B583B004A9D9
:103FB00001C90191FFF7D8FF03B008BC04B018474E
:103FC000F0B5DE4657464E464546E0B587B0070099
:103FD00093461800039310AB1A780592119D129A1C
:103FE00090463B680022DA663B6859603B680132C4
:103FF000DA660290002399460493002600242DE0FF
:104000003B79002B39D0012337E0059A002A01D0F3
:10401000002236E0012234E000214046A847060095
:104020000443E4B2002E06D13B685B6BDB0602D48E
:10403000002DF1D1F6E7002E09D13B6880229A5875
:104040000492002A28D1002C39D1CA4527D0002C4F
:104050003DD101239C46E144019B9B46029B99452F
:1040600035DA039B013B9A46002D02D001214046E0
:10407000A8474B46002BC3D000239B02CA45C4D09F
:104080000022520213435A46013201925A461178D5
:104090003A680B431361CBE75B6D01240FE0059B8E
:1040A000002BD4D10BE000214046A8470600044372
:1040B000E4B2002E06D13B685B6B9B0502D4002D59
:1040C000F1D1F6E7002EC2D13B681B6EBFE7002C92
:1040D00008D0002E14D1049B002B15D0DA0717D47A
:1040E0001B0709D5059B3B71484607B0F0BCBB4692
:1040F000B246A946A046F0BD01235B429946F1E7CE
:1041000002235B429946EDE701235B429946E9E7CA
:1041100001235B429946E5E7F0B5DE4657464E4639
:104120004546E0B585B005009146180002930EABF8
:104130001A7803920F9E109F2B680022DA662B6874
:1041400059602B680132DA66834600239846019352
:1041500000242CE02A79002A3BD0012239E003997F
:10416000002901D0002138E0012136E05B6D0124F7
:10417000002E05D000213800B04701900443E4B27E
:10418000002C0AD12B689B6F002B06D12B68802254
:104190009A585A6B5206EBD5E8E7002C24D12B68CD
:1041A0001B694A46137001239C46E044E144D8450C
:1041B0001ADA029B013B9A46002E02D001213800F8
:1041C000B0472B685A6F102AFBD04246002AC1D054
:1041D00000229202C245C2D0002149020A43802136
:1041E00049000A431A61D1E7002C05D0019B002B3E
:1041F0000CD002235B429846039B2B71404605B0CE
:10420000F0BCBB46B246A946A046F0BD01235B42C6
:104210009846F1E7F0B5D6464F464646C0B505008C
:104220000C000520FDF7E4F9060060088019210064
:10423000FDF7E4FB07004300994681440521484609
:10424000FDF7DCFB80463B1A9A46274B9C4225D85B
:10425000700080192549FDF7D1FB441C4346023B01
:10426000A34222D32B680022DA662B681A68042145
:10427000514006220A40802149018C4663441A605D
:104280002B685246DA612B6842461A624B464F2B26
:1042900011D950214846FDF7B1FB0DE0700080199F
:1042A0001349FDF7ABFB441CD8E7124B124A5D21C2
:1042B0001248FFF7DFFC0120A0232A68D0502B68AA
:1042C000D86F44402404240C0D4A944663441C6077
:1042D0002B680122DA6639003000FDF78FFBE0BC65
:1042E000BA46B146A846F0BD3F420F0080969800FE
:1042F00040787D01445C0110AC5C0110645C0110ED
:104300007C10000010B5164B984224D004220123E3
:104310009340144A1360124B98421ED0042301228A
:104320009A40114B1A60114B1B6814009C43231ECA
:10433000F9D104710268D46602686624FF341460FF
:104340000268D36302689363883303220468E250EF
:10435000FFF760FF10BD0322D9E70323DFE7C04664
:104360008002002000E0004000F0004008C0004053
:1043700030B585B008AC25780024029401940095EE
:10438000FFF71EFE05B030BD30B585B008AC25780E
:104390000024029401940095FFF7BEFE05B030BDE5
:1043A000014B18687047C046C05C0110F0B5454627
:1043B00057464E46DE46E0B589B0129D0400894658
:1043C00090461F00002D68D050239A46AA445046BC
:1043D00000F0E0FF002860D0002C5ED02368642647
:1043E0009B46002B07D0300009B0F0BCBB46B2465C
:1043F000A946A046F0BD484608F0B2F900284ED0C4
:104400004346002B49D0002F47D05B46079307ABAC
:1044100005935B46049303932B006A46583343CBC2
:1044200043C25346390048462A6D5B6808F03CFA9F
:1044300000284DD1C82101202A6EEB6D98472060DD
:1044400000284CD0484608F0C1F92B006433266898
:10445000079A009341462B0001F018F9C422236803
:10446000B050985800282BD07033190001F010FA82
:10447000061E16D148232468EA5C7033E2542900F2
:1044800070222000FEF78AFA4B461A68C023E250D9
:10449000296E07986B6D9847A5E70B26A3E7C826FA
:1044A000A1E72368002B11D0C4269A59002A07D00F
:1044B000484608F08BF92368995901F0F9F9236807
:1044C0001800296E6A6D9047002323600126DFE7FC
:1044D00003000222673B934303D00A28F6D10A2641
:1044E000D6E76726D4E7C04670B51A4D8AB0502289
:1044F000194902AC06002800FEF750FA200000F02F
:104500003FFF2B00503307CC07C306CC06C36C46D5
:10451000200000F0DFFF2B00643306CC06C36A46A0
:104520002724002312191000137008F059F90028ED
:104530000CD16B461B191A786C232900EA54300001
:104540007022FEF72BFA30000AB070BD00F04EFF6B
:104550000022F1E7D8670020C85C0110F8B504001C
:104560000D001600002819D00368002B16D0C427B0
:10457000DA59002A12D0C022985807F001FD00280D
:104580000CD02368D859002808D0002D09D032005B
:10459000290001F013F8431E984101E096204000E5
:1045A000F8BD0B20FCE7C04670B5041E12D00368AE
:1045B000002B0FD0C4255A59002A0BD0C02298587E
:1045C00007F0DEFC002805D023685859431E9841A7
:1045D000C0B200E0002070BD002808D00368002BA6
:1045E00005D0C4229858431E9841C0B2704700209D
:1045F000FCE7C04630B5030085B00800002B3DD075
:104600001A780A2A3CD81F4992008A5897465A6B52
:10461000016A920052580020511E8A4139215A5491
:1046200005B030BD5A6B0168F3E75A6B8169F0E75A
:104630005A6B8168EDE75A6B0169EAE75C6825000F
:1046400023002200210043350295423401354133D5
:1046500040321031019500940AF0B4F8E0E75C684C
:10466000250023002200210023352234213320326B
:104670001031019500940AF001FBD1E70B20CFE740
:104680000120CDE7185D0110F0B5C64600B5040065
:1046900098B0002800D19CE003780A2B00D95AE199
:1046A000AE4A9B00D3589F46436B0A6A9B009B58B7
:1046B000002B08D0210082681031406808F09CFA75
:1046C000051E00D09DE0002584E0436B0A689B0036
:1046D0009B58002BF7D08168002340680AAA08F095
:1046E000ABFB051EEFD09223FF33984216D1002278
:1046F000593BFF3BE2546DE0436B8A699B009B583A
:10470000002BE0D0010082681031406807F0AEFB5A
:10471000051ED8D0F623FF3398425BD000F066FE2A
:1047200058E020234068C35C002B00D071E02223B6
:10473000C35C002B00D09DE02123C35C002BC2D0C2
:1047400010300AAA04A90AF0AFF9051EE6D1606884
:104750000AA90AF06FFB051E00D1E5E0082001213F
:1047600028560AF0FFFA0600032800D0CEE0280001
:104770001822583004A9FEF711F92E72002529E0FD
:1047800042234068C35C002B5CD1C369002B03D07B
:104790004023C35C002B22D14423C35C002B00D0F8
:1047A00082E04323C35C002B8DD0C26A0AA910307B
:1047B00009F0BCFE051EB1D10E9A0F9B60680AF08D
:1047C00085FB002800D17EE7232301220025C25467
:1047D00000E00B25280018B080BCB846F0BD816A07
:1047E000103009F037FF051E00D097E76068816A36
:1047F0000AF020FB002802D022230122C254606864
:10480000CAE7574B984200D088E739230022E25488
:10481000E0E70AF0E3FA061E606800D187E731009E
:104820007060F269103028310AF068F8051E00D077
:104830008AE030001022F1690930FEF7AFF83572D6
:10484000606874E7103004AA0AA909F0EBFD051EA0
:1048500000D063E70E9A0F9B60680AF025FB0028E2
:1048600006D020230122C2546B461A7C2123C25455
:1048700060688AE7103004AA0AA90AF0C7F8051E82
:1048800000D04BE7606804A90AF0D4FA051E06D0F0
:10489000182240300AA9FEF781F802232B72222346
:1048A00000226068C25447E702000AA93032103083
:1048B00009F086FE051E00D030E70E9A0F9B606857
:1048C0000AF016FB061E3DD0012383846068836BCB
:1048D000002B00D165E725230025984601276B00B2
:1048E000416B5B19DB00C9180AF0A4FA002807D055
:1048F00043466068F754836B0135AB42EFD850E70D
:1049000060680135836BAB42E9D84AE764681022DE
:1049100006A96846FEF742F803212000049A059B89
:104920000AF05AFB002555E76468102206A968467C
:10493000FEF734F802212000049A059B0AF04CFB94
:10494000002547E760682CE7310060680AF058FAF4
:1049500000F04CFD3EE701253CE7C046445D0110F8
:1049600059020000F0B5C646030000B500282BD060
:10497000002929D0020044208446013800248046C2
:104980002427383209E0092D18D0507800281CD18E
:10499000013440334032A14217D01078002814D09F
:1049A0001D78082DEFD15E68356C2D020DD1604663
:1049B000305C002809D14046305CE7E75D682E6A2C
:1049C000002E02D1E85DE1E7002080BCB846F0BDD2
:1049D000F0B5C64600B5040084B0002800D19CE0C4
:1049E0004378002B0FD10378082B68D0092B1AD0FD
:1049F0003922825C002A08D00A2B00D95DE1B04937
:104A00009A008A589746012B05D00024200004B054
:104A100080BCB846F0BD03780A2B00D94DE1A94906
:104A20009A008A58974624234068026AC35C002A89
:104A300000D0CEE0002BE8D003E048680AF0E0F9AF
:104A400060680AF021FA011EF7D124236068C1547E
:104A5000C2E0A068A16A266B062B00D1DAE0072B22
:104A600000D125E12500B0471035A26A6068290011
:104A700008F00CF90400002CC8D000F0B7FCC5E722
:104A80002100A068236B10319847BEE7A068236B14
:104A90009847BAE7606808F0F7FC8B4B040098422F
:104AA000E9D1B2E73923E35CE16A226B002B00D144
:104AB000ADE0A0689047A8E7236B9847A5E740685A
:104AC000036C1B0207D14433C35C002B03D1433377
:104AD000C35C002B99D04223C35C002B20D0202341
:104AE0000027984621260AF015FA051E17D04346DE
:104AF000EF54636828009B69E26AA95D9847AB5D43
:104B0000002B00D190E028000AF04CF9002800D0DA
:104B10008AE001232B726068E5E70B2476E7606882
:104B20004023C35C002B13D0C568002D2BD0222658
:104B30000027AB5D002B08D0C369AF55002B04D014
:104B4000816AE26A2800984760682D68002DF0D1DC
:104B50004423C35C002B16D0C568002D13D0252339
:104B6000242600279846AB5D002B09D0436AAF5539
:104B7000002B05D041462800E26A695C98476068CE
:104B80002D68002DEFD14323C35C002B00D13CE7FF
:104B9000232700260BE063682800D96AE26A1B6AB3
:104BA000EE559847606829000AF02AF960680AF013
:104BB000C1F9051EEFD128E73922825C036B002A78
:104BC0002FD10020984720E7406884E724234068DD
:104BD000C35C002B00D034E72023C35C002B34D00F
:104BE0003A4E00210AF040F9051E2BD063682800D8
:104BF000E16A9B699847B0421CD0002128000AF066
:104C0000A9F9606829000AF0FBF86068E9E700206C
:104C10009047FAE6250010350A002900B04724E73E
:104C2000236BA0689847F0E6606829000AF0E8F86E
:104C3000606858E7012128000AF08CF901232B72E3
:104C40006068CEE720236068C5542123C35C002B35
:104C500000D1DAE6C568002D26D02526022702E01D
:104C60002D68002D20D00823EB56032BF8D1C36903
:104C7000E16A28009847A855002804D028000AF0C7
:104C800089F96068ECE76368290098461022603172
:104C90006846FDF783FE01214046AA6DEB6D0AF0E0
:104CA0009BF92F726068DBE721230022C254ACE637
:104CB0002500E26AB0471035D7E60124A6E6C046D3
:104CC000705D01109C5D011021030000340800009C
:104CD000F0B504000F0016001D00B3B000284BD043
:104CE000002949D0180000F055FB002844D0002EC0
:104CF00042D0902223490EA8FDF750FE90220EA923
:104D00002000FDF74BFE68466760E66008F000FD96
:104D10002000342269461830FDF740FE00231A4A6D
:104D200029692267636765612B68B0019847A060B5
:104D3000002824D0002500E0A068AB013100C01895
:104D4000013500F009FAAE42F6D120004C3000F0F7
:104D5000F7F980220D4BA35000230432A350A26820
:104D6000002A07D06269002A04D0E268002A01D034
:104D70008822A354002000E00B2033B0F0BD0A20AD
:104D8000FBE7C046F85D011000CA9A3B6549001078
:104D900070B5041E1ED000291CD00369C268012012
:104DA000934200D370BDA2689D0152195160022147
:104DB000250011800021013318351087D1622800A9
:104DC000236108F0AFFC002806D1236D00200133D9
:104DD0002365E7E70B20E5E7280008F0ADFC002895
:104DE000F3D0DFE7F0B5CE46474680B5040099B072
:104DF00000283BD006001836300008F093FC002550
:104E0000002805D0280019B0C0BCB946B046F0BD96
:104E1000300008F091FC002825D104AF3D000AA81D
:104E200008F076FC34220AA93000FDF7B7FD236DA7
:104E300060699C46636EE16C98468CC88CC588C8D6
:104E400088C5606863460390A06E42460290A06DDC
:104E50000190606D0090300008F09CFF051ED1D0DD
:104E600000F0C4FACEE700F0C1FAD6E70B25C9E797
:104E7000F0B54E464546DE465746E0B5040090463E
:104E8000994683B0002800D18EE0406807F078F89A
:104E9000002839D0260020001836FFF7A3FF300085
:104EA00008F02CFD071E00D07BE0E3680025002BF6
:104EB0001ED038239A46A04B9B46A368AA019B1894
:104EC00052469A5C002A13D01A780A2A1CD85946EE
:104ED00092008A5897461A0030005968343209F017
:104EE00081F80190002823D1E3680135AB42E4D872
:104EF0004B464246300009F0A5F88823E35C002BBE
:104F000000D1B6E0012B51D000F070FA0127380033
:104F100003B0F0BCBB46B246A946A046F0BD1A009D
:104F200030005968343209F02DF801900028DBD0A8
:104F300000F05CFA019FEAE71A0030005968343249
:104F400008F0ACFC01900028CED0F1E71A00300048
:104F50005968343208F0E0FF01900028C4D0E7E738
:104F60001A0030005968343208F0A6FF019000287A
:104F7000BAD0DDE71A00596830003432103109F038
:104F80001FFE01900028AFD0D2E71A005968300008
:104F900000233432103109F0A3FB01900028A3D084
:104FA000C6E700F023FAB2E70B27B0E70022A368B8
:104FB000E1689C460025904600291CD03832914675
:104FC0009222FF3292460EE03100FFF713FB051EDE
:104FD00001D050454BD101239C46E168E044A368D1
:104FE000884500D39EE09C46434698014B4660446A
:104FF000C35C002BE8D18423E258043B6046E358AD
:105000009847002833D00022E3689046002B2ED02A
:10501000382399469223FF339A460CE03100FFF77C
:1050200033FB051E01D0504521D101239C46E36886
:10503000E04498457AD243464A469801A368181836
:10504000825C002AEAD138220026904609E0FFF768
:10505000BFFC051E0BD1E36801369E4200D356E724
:10506000A368B00118184346C35C002BEFD12F0092
:105070004DE70022A368E1689C4600259046002980
:105080001BD0383291469222FF3292460DE0310019
:10509000FFF7B0FA051E01D05045E8D101239C4628
:1050A000E168E044A36888453ED29C4643469801A7
:1050B0004B466044C35C002BE9D18423E258043B97
:1050C0006046E35898470028D1D00022E368904614
:1050D000002BCCD038239A469223FF339B4616E010
:1050E0003100FFF7D1FA002804D0584502D0134B05
:1050F00098421FD1A0684844FFF76AFC051EB6D14C
:1051000001239C46E368E044984500D3FFE643460C
:105110009B0199465346A0684844C35C002BDFD1ED
:105120002F00F4E69C4666E79C46C6E7002B9ED01F
:10513000A36888E70700EAE6C85D0110590200008D
:1051400010B5002805D020220021FDF721FC002009
:1051500010BD0B20FCE7C04600280BD00B230380BA
:1051600000234163436083608362C36203630387F8
:10517000002070470B20FCE7F0B5C64600B50600DE
:105180000F0090461C0086B0002835D0002B33D08D
:1051900007F0A2F823006A4605900C3303CB03C244
:1051A00005A821686268A36807F098F8051E1CD15D
:1051B00002AD280006F0DCFE3300380006CD06C341
:1051C0003300414605AA06F055FF051E16D13100F1
:1051D00022000320B4600C3107F0B0FE051E0DD193
:1051E00005A807F0CFF8002801D000F0FFF828004C
:1051F00006B080BCB846F0BD0B25F8E700F0F6F825
:1052000005A807F0BFF80028F1D0EEE7F0B5474653
:10521000CE4680B504000E00170098469FB00028C7
:1052200027D0002925D0002A23D0002B21D002AD81
:10523000280007F021F923002A0003CA03C3100045
:10524000914607F0F3FA280007F016F9230006CD7F
:1052500006C34B46200000933A004346310007F056
:1052600013F9041E07D120001FB0C0BCB946B046D8
:10527000F0BD0B24F7E700F0B9F800F0B7F8F2E75B
:10528000F0B5C64600B504000D0016001F009EB024
:10529000002824D0002922D0002A20D0002B1ED0A4
:1052A000FFF77EF802AB984620601800FFF71CF964
:1052B00050220C494046FDF771FB43462000009305
:1052C00032003B002900FFF771F8041E04D12000D2
:1052D0001EB080BCB846F0BD00F088F8F7E70B249C
:1052E000F5E7C046885E0110F0B5CE46474680B56A
:1052F00006000D00904699468BB0002824D0002966
:1053000022D007F0FDFF012303AF3060380008937F
:10531000AC6829008CCC8CC00CCC0CC0129B2A0031
:105320000293434600934B4630000C31019307F043
:10533000EDFF041E05D120000BB0C0BCB946B0463D
:10534000F0BD00F053F8F6E70B24F4E710B5FDF7D5
:10535000EDFA10BD10B5FDF7FDFA10BD10B5FDF763
:105360000BFB10BD10B5FDF7CFFA10BD020030B534
:10537000024B32CB32C212CB12C230BDD85E01100A
:10538000020030B5024B32CB32C212CB12C230BD5A
:105390008802002000280DD00368002B0AD0436843
:1053A000002B07D0C368002B04D08068431E9841AF
:1053B000C0B200E000207047084B1B78002B09D0DA
:1053C000074B1A78002A02D0064B18787047013232
:1053D0001A70F9E7044B1878F8E7C0465B730020B1
:1053E0005C7300205C6E00206C5301100021084BA0
:1053F00000201980002100229860D960054B0649E1
:105400001A700978054B1970054B1A707047C04621
:10541000486800205C730020087001105C6E00205A
:105420005B73002070B5040084B000281BD069466F
:105430000120FBF705F900281BDB01990220009EE3
:1054400000290EDB029D002D0FDB00230A4A3000ED
:10545000FDF70EF92A00EB178018594120606160B2
:10546000002004B070BD0B20FBE733000B43F8D0E5
:10547000EBE70220F5E7C04600CA9A3B70B504008E
:1054800084B000281BD069460020FBF7D9F800281B
:105490001BDB01990220009E00290EDB029D002DDE
:1054A0000FDB00230A4A3000FDF7E2F82A00EB1771
:1054B0008018594120606160002004B070BD0B204D
:1054C000FBE733000B43F8D0EBE70220F5E7C046DB
:1054D00000CA9A3B002303600371704710B5002A8D
:1054E00012D0002B10D0029C002C0DD0039C002C5D
:1054F0000AD0064C20700020E360029B61602361AB
:10550000039BA260636110BD0B20FCE7BC6E002012
:1055100070B5244B244C1A7B05000E00A544002ACC
:1055200002D01C68002C1DD1802268461F4B9200BF
:105530001978815459688C328150D86819695A6930
:105540009B689B909C919D9200216A4600209A93B3
:1055500000F020FA002815D0A4239B009D4470BDC4
:1055600000281CD1A8239B009C46A068320029007B
:10557000604403F06FF96468002CF1D101235840B6
:10558000C0B2E9E7320029009EA803F0B1F9040097
:10559000684603F035F901235C40E0B2DCE7002007
:1055A000DAE7C046E86F002070FDFFFFBC6E002008
:1055B00010B5C96F03F0DCFF10BDC046F0B50400A4
:1055C0000D008FB0002855D0002953D0006800F09E
:1055D000DDFD00284ED06668002E4BD0B46928004F
:1055E00023699847F26903000590002A02D005A8B4
:1055F0009047059B8027F2591069A8229200944693
:1056000000937269B16F604406AB05F0C5FA0028DB
:105610001ED0A368280006A99847336A0500040035
:10562000002B01D006A8984780237A22F358B25C59
:105630001869012A21D0A8239B009C46F16F604481
:1056400003F096FF2840C4B201235C40E0B212E0B0
:10565000F3591869A8239B009C460B4B02960193B3
:10566000059B604400937269B16F06AB05F0C4FA04
:105670000028CED101200FB0F0BDA8239B009C468E
:10568000604403F045FBDFE7B1550010F0B5454637
:105690004E46DE465746E0B58846050091461C005A
:1056A00089B0002800D1DAE0002900D1D7E00068F5
:1056B00000F06CFD002800D1D1E04B46002B00D15A
:1056C000CDE01B78002B00D1C9E0002C00D1C6E052
:1056D0006A486F680AF090F9002800D1BFE0856839
:1056E0002E00843675600AF039FA8423E8501833A6
:1056F0009A46AA4453464846B3600EF03BFB01303D
:105700003C2800D9A3E04B463C215D4A5046FEF7B9
:105710002BFA8023EF50FA2328009B005022EB67DE
:1057200021002830FDF73AF9237A3A69022B00D19B
:105730009EE0DE239B00D358AB67002340465149CF
:10574000EB612B6200F032FD002800D17FE042685F
:10575000AA61002A7BD02300494638000AF052FC97
:105760006862002878D03A69474BD05A411CD15220
:10577000032103F04BF8E1223B6992009958802302
:105780009946EB5828611869A8239B009C4606237C
:10579000904600934A789B460B7812021A438B7806
:1057A000C9781B041343090619432A697B696044BD
:1057B00002F0A8FEE3234146020038699B00C3586B
:1057C000415800F05DFC002841D03A692F4BD05A77
:1057D000411CD152052103F019F8A8214A4689003D
:1057E0008C46AB5841461B6968611A003B696244AC
:1057F000595806A88946696A05928A46210000F030
:1058000061FC5946069A0391019202A98A8A51467F
:1058100001AB9A800B69494600934A780B781202D3
:105820001A438B78C9781B041343090619436A6924
:105830002B69059802F09CFEE3234146020038697B
:105840009B00C358415800F01BFC002808D1686A2F
:10585000002801D000F0FCFA300000F091FA002698
:10586000300009B0F0BCBB46B246A946A046F0BD28
:10587000DF239B00D358AB675FE7C046AC6E0020C8
:10588000205F0110EC5E0110981500009A150000D1
:10589000030010B50800002B08D0002906D0596875
:1058A00050222831FDF77AF8002010BD0B20FCE7CC
:1058B000F0B5D6464F46464604000D00C0B5002858
:1058C00004D0006800F062FC002806D1012420000A
:1058D000E0BCBA46B146A846F0BD6368002BF5D0DF
:1058E000002DF3D0286800F051FC0028EED06C6841
:1058F000002CEBD08027E359606A98460AF0E2FB5F
:10590000E359E2261869A8239B009C46B6008159FA
:1059100060444A780B7812021A438B78C9781B04CA
:10592000134309066269194302F038FDE3598246C0
:105930001869A8239B009C46815960444A780B78DB
:1059400012021A438B78C9781B0413430906226993
:10595000194302F023FD434604001869E4239B0029
:10596000994652468159C35800F08AFB43460700C6
:1059700018694B462200C358815900F081FB38401A
:10598000040001235C402800E4B2640000F0F8F950
:105990009DE7C046030010B51000002B01D0103366
:1059A0001800002906D0496902F0E6FE012358409C
:1059B000C0B210BD014B5968F6E7C046BC6E00206E
:1059C000074B10B51B68002B07D09868A8239B00D5
:1059D0009C46604403F092F910BD00200021FBE7D3
:1059E000E86F0020094B01001B6810B5002B0AD09E
:1059F0009868A8239B009C46604403F041FE012365
:105A00005840C0B210BD0120FCE7C046E86F00203E
:105A1000F0B5C6460500170000B5002A18D0037B74
:105A2000002B15D1036043600223FF3383810023E1
:105A3000C8220C000026984682602100280009F048
:105A4000EFFF43460136A4602373C834B742F4D154
:105A500080BCB846F0BDC046F0B5C646050017008C
:105A600000B5002A18D0037B002B15D103604360DA
:105A70000223FF3383810023C8220C0000269846AE
:105A800082602100280009F0CBFF43460136A46064
:105A90002373C834B742F4D180BCB846F0BDC046C9
:105AA000F0B5C6460500170000B5002A18D0037BE4
:105AB000002B15D1036043600223FF338381002351
:105AC000D8220C000026984682602100280009F0A8
:105AD000A7FF43460136A4602373D834B742F4D1FC
